{
  "_format": "hh-sol-artifact-1",
  "contractName": "CarbonCredit",
  "sourceName": "Contracts/CarbonCredit.sol",
  "abi": [
    {
      "inputs": [],
      "stateMutability": "nonpayable",
      "type": "constructor"
    },
    {
      "anonymous": false,
      "inputs": [
        {
          "indexed": true,
          "internalType": "address",
          "name": "owner",
          "type": "address"
        },
        {
          "indexed": true,
          "internalType": "address",
          "name": "approved",
          "type": "address"
        },
        {
          "indexed": true,
          "internalType": "uint256",
          "name": "tokenId",
          "type": "uint256"
        }
      ],
      "name": "Approval",
      "type": "event"
    },
    {
      "anonymous": false,
      "inputs": [
        {
          "indexed": true,
          "internalType": "address",
          "name": "owner",
          "type": "address"
        },
        {
          "indexed": true,
          "internalType": "address",
          "name": "operator",
          "type": "address"
        },
        {
          "indexed": false,
          "internalType": "bool",
          "name": "approved",
          "type": "bool"
        }
      ],
      "name": "ApprovalForAll",
      "type": "event"
    },
    {
      "anonymous": false,
      "inputs": [
        {
          "indexed": true,
          "internalType": "uint256",
          "name": "tokenId",
          "type": "uint256"
        },
        {
          "indexed": false,
          "internalType": "string",
          "name": "projectId",
          "type": "string"
        },
        {
          "indexed": false,
          "internalType": "uint256",
          "name": "carbonAmount",
          "type": "uint256"
        },
        {
          "indexed": true,
          "internalType": "address",
          "name": "owner",
          "type": "address"
        }
      ],
      "name": "CreditMinted",
      "type": "event"
    },
    {
      "anonymous": false,
      "inputs": [
        {
          "indexed": true,
          "internalType": "uint256",
          "name": "tokenId",
          "type": "uint256"
        },
        {
          "indexed": false,
          "internalType": "address",
          "name": "from",
          "type": "address"
        },
        {
          "indexed": false,
          "internalType": "address",
          "name": "to",
          "type": "address"
        }
      ],
      "name": "CreditTransferred",
      "type": "event"
    },
    {
      "anonymous": false,
      "inputs": [
        {
          "indexed": true,
          "internalType": "uint256",
          "name": "tokenId",
          "type": "uint256"
        },
        {
          "indexed": false,
          "internalType": "address",
          "name": "verifier",
          "type": "address"
        }
      ],
      "name": "CreditVerified",
      "type": "event"
    },
    {
      "anonymous": false,
      "inputs": [
        {
          "indexed": true,
          "internalType": "address",
          "name": "previousOwner",
          "type": "address"
        },
        {
          "indexed": true,
          "internalType": "address",
          "name": "newOwner",
          "type": "address"
        }
      ],
      "name": "OwnershipTransferred",
      "type": "event"
    },
    {
      "anonymous": false,
      "inputs": [
        {
          "indexed": true,
          "internalType": "address",
          "name": "from",
          "type": "address"
        },
        {
          "indexed": true,
          "internalType": "address",
          "name": "to",
          "type": "address"
        },
        {
          "indexed": true,
          "internalType": "uint256",
          "name": "tokenId",
          "type": "uint256"
        }
      ],
      "name": "Transfer",
      "type": "event"
    },
    {
      "inputs": [
        {
          "internalType": "address",
          "name": "to",
          "type": "address"
        },
        {
          "internalType": "uint256",
          "name": "tokenId",
          "type": "uint256"
        }
      ],
      "name": "approve",
      "outputs": [],
      "stateMutability": "nonpayable",
      "type": "function"
    },
    {
      "inputs": [
        {
          "internalType": "address",
          "name": "owner",
          "type": "address"
        }
      ],
      "name": "balanceOf",
      "outputs": [
        {
          "internalType": "uint256",
          "name": "",
          "type": "uint256"
        }
      ],
      "stateMutability": "view",
      "type": "function"
    },
    {
      "inputs": [
        {
          "internalType": "uint256",
          "name": "",
          "type": "uint256"
        }
      ],
      "name": "creditData",
      "outputs": [
        {
          "internalType": "string",
          "name": "projectId",
          "type": "string"
        },
        {
          "internalType": "string",
          "name": "location",
          "type": "string"
        },
        {
          "internalType": "uint256",
          "name": "carbonAmount",
          "type": "uint256"
        },
        {
          "internalType": "uint256",
          "name": "dateCreated",
          "type": "uint256"
        },
        {
          "internalType": "string",
          "name": "verificationData",
          "type": "string"
        },
        {
          "internalType": "string",
          "name": "species",
          "type": "string"
        },
        {
          "internalType": "string",
          "name": "methodology",
          "type": "string"
        },
        {
          "internalType": "address",
          "name": "verifier",
          "type": "address"
        },
        {
          "internalType": "bool",
          "name": "isVerified",
          "type": "bool"
        }
      ],
      "stateMutability": "view",
      "type": "function"
    },
    {
      "inputs": [
        {
          "internalType": "uint256",
          "name": "tokenId",
          "type": "uint256"
        }
      ],
      "name": "getApproved",
      "outputs": [
        {
          "internalType": "address",
          "name": "",
          "type": "address"
        }
      ],
      "stateMutability": "view",
      "type": "function"
    },
    {
      "inputs": [
        {
          "internalType": "uint256",
          "name": "tokenId",
          "type": "uint256"
        }
      ],
      "name": "getCreditData",
      "outputs": [
        {
          "components": [
            {
              "internalType": "string",
              "name": "projectId",
              "type": "string"
            },
            {
              "internalType": "string",
              "name": "location",
              "type": "string"
            },
            {
              "internalType": "uint256",
              "name": "carbonAmount",
              "type": "uint256"
            },
            {
              "internalType": "uint256",
              "name": "dateCreated",
              "type": "uint256"
            },
            {
              "internalType": "string",
              "name": "verificationData",
              "type": "string"
            },
            {
              "internalType": "string",
              "name": "species",
              "type": "string"
            },
            {
              "internalType": "string",
              "name": "methodology",
              "type": "string"
            },
            {
              "internalType": "address",
              "name": "verifier",
              "type": "address"
            },
            {
              "internalType": "bool",
              "name": "isVerified",
              "type": "bool"
            }
          ],
          "internalType": "struct CarbonCredit.CreditData",
          "name": "",
          "type": "tuple"
        }
      ],
      "stateMutability": "view",
      "type": "function"
    },
    {
      "inputs": [
        {
          "internalType": "address",
          "name": "owner",
          "type": "address"
        },
        {
          "internalType": "address",
          "name": "operator",
          "type": "address"
        }
      ],
      "name": "isApprovedForAll",
      "outputs": [
        {
          "internalType": "bool",
          "name": "",
          "type": "bool"
        }
      ],
      "stateMutability": "view",
      "type": "function"
    },
    {
      "inputs": [
        {
          "internalType": "address",
          "name": "to",
          "type": "address"
        },
        {
          "internalType": "string",
          "name": "projectId",
          "type": "string"
        },
        {
          "internalType": "string",
          "name": "location",
          "type": "string"
        },
        {
          "internalType": "uint256",
          "name": "carbonAmount",
          "type": "uint256"
        },
        {
          "internalType": "string",
          "name": "verificationData",
          "type": "string"
        },
        {
          "internalType": "string",
          "name": "species",
          "type": "string"
        },
        {
          "internalType": "string",
          "name": "methodology",
          "type": "string"
        }
      ],
      "name": "mintCredit",
      "outputs": [
        {
          "internalType": "uint256",
          "name": "",
          "type": "uint256"
        }
      ],
      "stateMutability": "nonpayable",
      "type": "function"
    },
    {
      "inputs": [],
      "name": "name",
      "outputs": [
        {
          "internalType": "string",
          "name": "",
          "type": "string"
        }
      ],
      "stateMutability": "view",
      "type": "function"
    },
    {
      "inputs": [],
      "name": "owner",
      "outputs": [
        {
          "internalType": "address",
          "name": "",
          "type": "address"
        }
      ],
      "stateMutability": "view",
      "type": "function"
    },
    {
      "inputs": [
        {
          "internalType": "uint256",
          "name": "tokenId",
          "type": "uint256"
        }
      ],
      "name": "ownerOf",
      "outputs": [
        {
          "internalType": "address",
          "name": "",
          "type": "address"
        }
      ],
      "stateMutability": "view",
      "type": "function"
    },
    {
      "inputs": [
        {
          "internalType": "string",
          "name": "",
          "type": "string"
        }
      ],
      "name": "projectExists",
      "outputs": [
        {
          "internalType": "bool",
          "name": "",
          "type": "bool"
        }
      ],
      "stateMutability": "view",
      "type": "function"
    },
    {
      "inputs": [],
      "name": "renounceOwnership",
      "outputs": [],
      "stateMutability": "nonpayable",
      "type": "function"
    },
    {
      "inputs": [
        {
          "internalType": "address",
          "name": "from",
          "type": "address"
        },
        {
          "internalType": "address",
          "name": "to",
          "type": "address"
        },
        {
          "internalType": "uint256",
          "name": "tokenId",
          "type": "uint256"
        }
      ],
      "name": "safeTransferFrom",
      "outputs": [],
      "stateMutability": "nonpayable",
      "type": "function"
    },
    {
      "inputs": [
        {
          "internalType": "address",
          "name": "from",
          "type": "address"
        },
        {
          "internalType": "address",
          "name": "to",
          "type": "address"
        },
        {
          "internalType": "uint256",
          "name": "tokenId",
          "type": "uint256"
        },
        {
          "internalType": "bytes",
          "name": "data",
          "type": "bytes"
        }
      ],
      "name": "safeTransferFrom",
      "outputs": [],
      "stateMutability": "nonpayable",
      "type": "function"
    },
    {
      "inputs": [
        {
          "internalType": "address",
          "name": "operator",
          "type": "address"
        },
        {
          "internalType": "bool",
          "name": "approved",
          "type": "bool"
        }
      ],
      "name": "setApprovalForAll",
      "outputs": [],
      "stateMutability": "nonpayable",
      "type": "function"
    },
    {
      "inputs": [
        {
          "internalType": "bytes4",
          "name": "interfaceId",
          "type": "bytes4"
        }
      ],
      "name": "supportsInterface",
      "outputs": [
        {
          "internalType": "bool",
          "name": "",
          "type": "bool"
        }
      ],
      "stateMutability": "view",
      "type": "function"
    },
    {
      "inputs": [],
      "name": "symbol",
      "outputs": [
        {
          "internalType": "string",
          "name": "",
          "type": "string"
        }
      ],
      "stateMutability": "view",
      "type": "function"
    },
    {
      "inputs": [
        {
          "internalType": "uint256",
          "name": "tokenId",
          "type": "uint256"
        }
      ],
      "name": "tokenURI",
      "outputs": [
        {
          "internalType": "string",
          "name": "",
          "type": "string"
        }
      ],
      "stateMutability": "view",
      "type": "function"
    },
    {
      "inputs": [],
      "name": "totalSupply",
      "outputs": [
        {
          "internalType": "uint256",
          "name": "",
          "type": "uint256"
        }
      ],
      "stateMutability": "view",
      "type": "function"
    },
    {
      "inputs": [
        {
          "internalType": "address",
          "name": "from",
          "type": "address"
        },
        {
          "internalType": "address",
          "name": "to",
          "type": "address"
        },
        {
          "internalType": "uint256",
          "name": "tokenId",
          "type": "uint256"
        }
      ],
      "name": "transferFrom",
      "outputs": [],
      "stateMutability": "nonpayable",
      "type": "function"
    },
    {
      "inputs": [
        {
          "internalType": "address",
          "name": "newOwner",
          "type": "address"
        }
      ],
      "name": "transferOwnership",
      "outputs": [],
      "stateMutability": "nonpayable",
      "type": "function"
    },
    {
      "inputs": [
        {
          "internalType": "uint256",
          "name": "tokenId",
          "type": "uint256"
        },
        {
          "internalType": "string",
          "name": "verificationData",
          "type": "string"
        }
      ],
      "name": "verifyCredit",
      "outputs": [],
      "stateMutability": "nonpayable",
      "type": "function"
    }
  ],
  "bytecode": "0x60806040523480156200001157600080fd5b506040518060400160405280601081526020017f426c7565436172626f6e437265646974000000000000000000000000000000008152506040518060400160405280600381526020017f424343000000000000000000000000000000000000000000000000000000000081525081600090816200008f919062000412565b508060019081620000a1919062000412565b505050620000c4620000b8620000ca60201b60201c565b620000d260201b60201c565b620004f9565b600033905090565b6000600660009054906101000a900473ffffffffffffffffffffffffffffffffffffffff16905081600660006101000a81548173ffffffffffffffffffffffffffffffffffffffff021916908373ffffffffffffffffffffffffffffffffffffffff1602179055508173ffffffffffffffffffffffffffffffffffffffff168173ffffffffffffffffffffffffffffffffffffffff167f8be0079c531659141344cd1fd0a4f28419497f9722a3daafe3b4186f6b6457e060405160405180910390a35050565b600081519050919050565b7f4e487b7100000000000000000000000000000000000000000000000000000000600052604160045260246000fd5b7f4e487b7100000000000000000000000000000000000000000000000000000000600052602260045260246000fd5b600060028204905060018216806200021a57607f821691505b60208210810362000230576200022f620001d2565b5b50919050565b60008190508160005260206000209050919050565b60006020601f8301049050919050565b600082821b905092915050565b6000600883026200029a7fffffffffffffffffffffffffffffffffffffffffffffffffffffffffffffffff826200025b565b620002a686836200025b565b95508019841693508086168417925050509392505050565b6000819050919050565b6000819050919050565b6000620002f3620002ed620002e784620002be565b620002c8565b620002be565b9050919050565b6000819050919050565b6200030f83620002d2565b620003276200031e82620002fa565b84845462000268565b825550505050565b600090565b6200033e6200032f565b6200034b81848462000304565b505050565b5b8181101562000373576200036760008262000334565b60018101905062000351565b5050565b601f821115620003c2576200038c8162000236565b62000397846200024b565b81016020851015620003a7578190505b620003bf620003b6856200024b565b83018262000350565b50505b505050565b600082821c905092915050565b6000620003e760001984600802620003c7565b1980831691505092915050565b6000620004028383620003d4565b9150826002028217905092915050565b6200041d8262000198565b67ffffffffffffffff811115620004395762000438620001a3565b5b62000445825462000201565b6200045282828562000377565b600060209050601f8311600181146200048a576000841562000475578287015190505b620004818582620003f4565b865550620004f1565b601f1984166200049a8662000236565b60005b82811015620004c4578489015182556001820191506020850194506020810190506200049d565b86831015620004e45784890151620004e0601f891682620003d4565b8355505b6001600288020188555050505b505050505050565b613e4d80620005096000396000f3fe608060405234801561001057600080fd5b50600436106101425760003560e01c8063715018a6116100b8578063c87b56dd1161007c578063c87b56dd14610361578063cc66d60f14610391578063e985e9c5146103c1578063f2fde38b146103f1578063fbe406e31461040d578063fcfa958e1461044557610142565b8063715018a6146102e35780638da5cb5b146102ed57806395d89b411461030b578063a22cb46514610329578063b88d4fde1461034557610142565b806323b872dd1161010a57806323b872dd146101ff5780632d1c55de1461021b57806342842e0e1461024b5780634f775b93146102675780636352211e1461028357806370a08231146102b357610142565b806301ffc9a71461014757806306fdde0314610177578063081812fc14610195578063095ea7b3146101c557806318160ddd146101e1575b600080fd5b610161600480360381019061015c919061277b565b610475565b60405161016e91906127c3565b60405180910390f35b61017f610557565b60405161018c919061286e565b60405180910390f35b6101af60048036038101906101aa91906128c6565b6105e9565b6040516101bc9190612934565b60405180910390f35b6101df60048036038101906101da919061297b565b61062f565b005b6101e9610746565b6040516101f691906129ca565b60405180910390f35b610219600480360381019061021491906129e5565b610757565b005b610235600480360381019061023091906128c6565b6107b7565b6040516102429190612b90565b60405180910390f35b610265600480360381019061026091906129e5565b610b8c565b005b610281600480360381019061027c9190612ce7565b610bac565b005b61029d600480360381019061029891906128c6565b610d44565b6040516102aa9190612934565b60405180910390f35b6102cd60048036038101906102c89190612d43565b610dca565b6040516102da91906129ca565b60405180910390f35b6102eb610e81565b005b6102f5610e95565b6040516103029190612934565b60405180910390f35b610313610ebf565b604051610320919061286e565b60405180910390f35b610343600480360381019061033e9190612d9c565b610f51565b005b61035f600480360381019061035a9190612e7d565b610f67565b005b61037b600480360381019061037691906128c6565b610fc9565b604051610388919061286e565b60405180910390f35b6103ab60048036038101906103a69190612f00565b611031565b6040516103b891906129ca565b60405180910390f35b6103db60048036038101906103d6919061302e565b6112b9565b6040516103e891906127c3565b60405180910390f35b61040b60048036038101906104069190612d43565b61134d565b005b610427600480360381019061042291906128c6565b6113d0565b60405161043c9998979695949392919061306e565b60405180910390f35b61045f600480360381019061045a919061311e565b6116f3565b60405161046c91906127c3565b60405180910390f35b60007f80ac58cd000000000000000000000000000000000000000000000000000000007bffffffffffffffffffffffffffffffffffffffffffffffffffffffff1916827bffffffffffffffffffffffffffffffffffffffffffffffffffffffff1916148061054057507f5b5e139f000000000000000000000000000000000000000000000000000000007bffffffffffffffffffffffffffffffffffffffffffffffffffffffff1916827bffffffffffffffffffffffffffffffffffffffffffffffffffffffff1916145b80610550575061054f82611729565b5b9050919050565b60606000805461056690613196565b80601f016020809104026020016040519081016040528092919081815260200182805461059290613196565b80156105df5780601f106105b4576101008083540402835291602001916105df565b820191906000526020600020905b8154815290600101906020018083116105c257829003601f168201915b5050505050905090565b60006105f482611793565b6004600083815260200190815260200160002060009054906101000a900473ffffffffffffffffffffffffffffffffffffffff169050919050565b600061063a82610d44565b90508073ffffffffffffffffffffffffffffffffffffffff168373ffffffffffffffffffffffffffffffffffffffff16036106aa576040517f08c379a00000000000000000000000000000000000000000000000000000000081526004016106a190613239565b60405180910390fd5b8073ffffffffffffffffffffffffffffffffffffffff166106c96117de565b73ffffffffffffffffffffffffffffffffffffffff1614806106f857506106f7816106f26117de565b6112b9565b5b610737576040517f08c379a000000000000000000000000000000000000000000000000000000000815260040161072e906132cb565b60405180910390fd5b61074183836117e6565b505050565b6000610752600761189f565b905090565b6107686107626117de565b826118ad565b6107a7576040517f08c379a000000000000000000000000000000000000000000000000000000000815260040161079e9061335d565b60405180910390fd5b6107b2838383611942565b505050565b6107bf6126ab565b6107c882611c3b565b610807576040517f08c379a00000000000000000000000000000000000000000000000000000000081526004016107fe906133c9565b60405180910390fd5b600860008381526020019081526020016000206040518061012001604052908160008201805461083690613196565b80601f016020809104026020016040519081016040528092919081815260200182805461086290613196565b80156108af5780601f10610884576101008083540402835291602001916108af565b820191906000526020600020905b81548152906001019060200180831161089257829003601f168201915b505050505081526020016001820180546108c890613196565b80601f01602080910402602001604051908101604052809291908181526020018280546108f490613196565b80156109415780601f1061091657610100808354040283529160200191610941565b820191906000526020600020905b81548152906001019060200180831161092457829003601f168201915b50505050508152602001600282015481526020016003820154815260200160048201805461096e90613196565b80601f016020809104026020016040519081016040528092919081815260200182805461099a90613196565b80156109e75780601f106109bc576101008083540402835291602001916109e7565b820191906000526020600020905b8154815290600101906020018083116109ca57829003601f168201915b50505050508152602001600582018054610a0090613196565b80601f0160208091040260200160405190810160405280929190818152602001828054610a2c90613196565b8015610a795780601f10610a4e57610100808354040283529160200191610a79565b820191906000526020600020905b815481529060010190602001808311610a5c57829003601f168201915b50505050508152602001600682018054610a9290613196565b80601f0160208091040260200160405190810160405280929190818152602001828054610abe90613196565b8015610b0b5780601f10610ae057610100808354040283529160200191610b0b565b820191906000526020600020905b815481529060010190602001808311610aee57829003601f168201915b505050505081526020016007820160009054906101000a900473ffffffffffffffffffffffffffffffffffffffff1673ffffffffffffffffffffffffffffffffffffffff1673ffffffffffffffffffffffffffffffffffffffff1681526020016007820160149054906101000a900460ff1615151515815250509050919050565b610ba783838360405180602001604052806000815250610f67565b505050565b610bb4611c7c565b610bbd82611c3b565b610bfc576040517f08c379a0000000000000000000000000000000000000000000000000000000008152600401610bf3906133c9565b60405180910390fd5b6008600083815260200190815260200160002060070160149054906101000a900460ff1615610c60576040517f08c379a0000000000000000000000000000000000000000000000000000000008152600401610c5790613435565b60405180910390fd5b60016008600084815260200190815260200160002060070160146101000a81548160ff021916908315150217905550336008600084815260200190815260200160002060070160006101000a81548173ffffffffffffffffffffffffffffffffffffffff021916908373ffffffffffffffffffffffffffffffffffffffff16021790555080600860008481526020019081526020016000206004019081610d079190613601565b50817ffb0eafba66d536e6069c4034f4a025380fb2178d955970896c46cbcf89ad3c3433604051610d389190612934565b60405180910390a25050565b600080610d5083611cfa565b9050600073ffffffffffffffffffffffffffffffffffffffff168173ffffffffffffffffffffffffffffffffffffffff1603610dc1576040517f08c379a0000000000000000000000000000000000000000000000000000000008152600401610db89061371f565b60405180910390fd5b80915050919050565b60008073ffffffffffffffffffffffffffffffffffffffff168273ffffffffffffffffffffffffffffffffffffffff1603610e3a576040517f08c379a0000000000000000000000000000000000000000000000000000000008152600401610e31906137b1565b60405180910390fd5b600360008373ffffffffffffffffffffffffffffffffffffffff1673ffffffffffffffffffffffffffffffffffffffff168152602001908152602001600020549050919050565b610e89611c7c565b610e936000611d37565b565b6000600660009054906101000a900473ffffffffffffffffffffffffffffffffffffffff16905090565b606060018054610ece90613196565b80601f0160208091040260200160405190810160405280929190818152602001828054610efa90613196565b8015610f475780601f10610f1c57610100808354040283529160200191610f47565b820191906000526020600020905b815481529060010190602001808311610f2a57829003601f168201915b5050505050905090565b610f63610f5c6117de565b8383611dfd565b5050565b610f78610f726117de565b836118ad565b610fb7576040517f08c379a0000000000000000000000000000000000000000000000000000000008152600401610fae9061335d565b60405180910390fd5b610fc384848484611f69565b50505050565b6060610fd482611793565b6000610fde611fc5565b90506000815111610ffe5760405180602001604052806000815250611029565b8061100884611fdc565b60405160200161101992919061380d565b6040516020818303038152906040525b915050919050565b600061103b611c7c565b60098760405161104b9190613831565b908152602001604051809103902060009054906101000a900460ff16156110a7576040517f08c379a000000000000000000000000000000000000000000000000000000000815260040161109e90613894565b60405180910390fd5b6110b160076120aa565b60006110bd600761189f565b90506110c989826120c0565b604051806101200160405280898152602001888152602001878152602001428152602001868152602001858152602001848152602001600073ffffffffffffffffffffffffffffffffffffffff1681526020016000151581525060086000838152602001908152602001600020600082015181600001908161114b9190613601565b5060208201518160010190816111619190613601565b506040820151816002015560608201518160030155608082015181600401908161118b9190613601565b5060a08201518160050190816111a19190613601565b5060c08201518160060190816111b79190613601565b5060e08201518160070160006101000a81548173ffffffffffffffffffffffffffffffffffffffff021916908373ffffffffffffffffffffffffffffffffffffffff1602179055506101008201518160070160146101000a81548160ff02191690831515021790555090505060016009896040516112359190613831565b908152602001604051809103902060006101000a81548160ff0219169083151502179055508873ffffffffffffffffffffffffffffffffffffffff16817e6eb78c28940e3c491b390d404595d28155cf8e639f975d760fa33e34b1c8498a896040516112a29291906138b4565b60405180910390a380915050979650505050505050565b6000600560008473ffffffffffffffffffffffffffffffffffffffff1673ffffffffffffffffffffffffffffffffffffffff16815260200190815260200160002060008373ffffffffffffffffffffffffffffffffffffffff1673ffffffffffffffffffffffffffffffffffffffff16815260200190815260200160002060009054906101000a900460ff16905092915050565b611355611c7c565b600073ffffffffffffffffffffffffffffffffffffffff168173ffffffffffffffffffffffffffffffffffffffff16036113c4576040517f08c379a00000000000000000000000000000000000000000000000000000000081526004016113bb90613956565b60405180910390fd5b6113cd81611d37565b50565b60086020528060005260406000206000915090508060000180546113f390613196565b80601f016020809104026020016040519081016040528092919081815260200182805461141f90613196565b801561146c5780601f106114415761010080835404028352916020019161146c565b820191906000526020600020905b81548152906001019060200180831161144f57829003601f168201915b50505050509080600101805461148190613196565b80601f01602080910402602001604051908101604052809291908181526020018280546114ad90613196565b80156114fa5780601f106114cf576101008083540402835291602001916114fa565b820191906000526020600020905b8154815290600101906020018083116114dd57829003601f168201915b50505050509080600201549080600301549080600401805461151b90613196565b80601f016020809104026020016040519081016040528092919081815260200182805461154790613196565b80156115945780601f1061156957610100808354040283529160200191611594565b820191906000526020600020905b81548152906001019060200180831161157757829003601f168201915b5050505050908060050180546115a990613196565b80601f01602080910402602001604051908101604052809291908181526020018280546115d590613196565b80156116225780601f106115f757610100808354040283529160200191611622565b820191906000526020600020905b81548152906001019060200180831161160557829003601f168201915b50505050509080600601805461163790613196565b80601f016020809104026020016040519081016040528092919081815260200182805461166390613196565b80156116b05780601f10611685576101008083540402835291602001916116b0565b820191906000526020600020905b81548152906001019060200180831161169357829003601f168201915b5050505050908060070160009054906101000a900473ffffffffffffffffffffffffffffffffffffffff16908060070160149054906101000a900460ff16905089565b6009818051602081018201805184825260208301602085012081835280955050505050506000915054906101000a900460ff1681565b60007f01ffc9a7000000000000000000000000000000000000000000000000000000007bffffffffffffffffffffffffffffffffffffffffffffffffffffffff1916827bffffffffffffffffffffffffffffffffffffffffffffffffffffffff1916149050919050565b61179c81611c3b565b6117db576040517f08c379a00000000000000000000000000000000000000000000000000000000081526004016117d29061371f565b60405180910390fd5b50565b600033905090565b816004600083815260200190815260200160002060006101000a81548173ffffffffffffffffffffffffffffffffffffffff021916908373ffffffffffffffffffffffffffffffffffffffff160217905550808273ffffffffffffffffffffffffffffffffffffffff1661185983610d44565b73ffffffffffffffffffffffffffffffffffffffff167f8c5be1e5ebec7d5bd14f71427d1e84f3dd0314c0f7b2291e5b200ac8c7c3b92560405160405180910390a45050565b600081600001549050919050565b6000806118b983610d44565b90508073ffffffffffffffffffffffffffffffffffffffff168473ffffffffffffffffffffffffffffffffffffffff1614806118fb57506118fa81856112b9565b5b8061193957508373ffffffffffffffffffffffffffffffffffffffff16611921846105e9565b73ffffffffffffffffffffffffffffffffffffffff16145b91505092915050565b8273ffffffffffffffffffffffffffffffffffffffff1661196282610d44565b73ffffffffffffffffffffffffffffffffffffffff16146119b8576040517f08c379a00000000000000000000000000000000000000000000000000000000081526004016119af906139e8565b60405180910390fd5b600073ffffffffffffffffffffffffffffffffffffffff168273ffffffffffffffffffffffffffffffffffffffff1603611a27576040517f08c379a0000000000000000000000000000000000000000000000000000000008152600401611a1e90613a7a565b60405180910390fd5b611a3483838360016120de565b8273ffffffffffffffffffffffffffffffffffffffff16611a5482610d44565b73ffffffffffffffffffffffffffffffffffffffff1614611aaa576040517f08c379a0000000000000000000000000000000000000000000000000000000008152600401611aa1906139e8565b60405180910390fd5b6004600082815260200190815260200160002060006101000a81549073ffffffffffffffffffffffffffffffffffffffff02191690556001600360008573ffffffffffffffffffffffffffffffffffffffff1673ffffffffffffffffffffffffffffffffffffffff168152602001908152602001600020600082825403925050819055506001600360008473ffffffffffffffffffffffffffffffffffffffff1673ffffffffffffffffffffffffffffffffffffffff16815260200190815260200160002060008282540192505081905550816002600083815260200190815260200160002060006101000a81548173ffffffffffffffffffffffffffffffffffffffff021916908373ffffffffffffffffffffffffffffffffffffffff160217905550808273ffffffffffffffffffffffffffffffffffffffff168473ffffffffffffffffffffffffffffffffffffffff167fddf252ad1be2c89b69c2b068fc378daa952ba7f163c4a11628f55a4df523b3ef60405160405180910390a4611c36838383600161212a565b505050565b60008073ffffffffffffffffffffffffffffffffffffffff16611c5d83611cfa565b73ffffffffffffffffffffffffffffffffffffffff1614159050919050565b611c846117de565b73ffffffffffffffffffffffffffffffffffffffff16611ca2610e95565b73ffffffffffffffffffffffffffffffffffffffff1614611cf8576040517f08c379a0000000000000000000000000000000000000000000000000000000008152600401611cef90613ae6565b60405180910390fd5b565b60006002600083815260200190815260200160002060009054906101000a900473ffffffffffffffffffffffffffffffffffffffff169050919050565b6000600660009054906101000a900473ffffffffffffffffffffffffffffffffffffffff16905081600660006101000a81548173ffffffffffffffffffffffffffffffffffffffff021916908373ffffffffffffffffffffffffffffffffffffffff1602179055508173ffffffffffffffffffffffffffffffffffffffff168173ffffffffffffffffffffffffffffffffffffffff167f8be0079c531659141344cd1fd0a4f28419497f9722a3daafe3b4186f6b6457e060405160405180910390a35050565b8173ffffffffffffffffffffffffffffffffffffffff168373ffffffffffffffffffffffffffffffffffffffff1603611e6b576040517f08c379a0000000000000000000000000000000000000000000000000000000008152600401611e6290613b52565b60405180910390fd5b80600560008573ffffffffffffffffffffffffffffffffffffffff1673ffffffffffffffffffffffffffffffffffffffff16815260200190815260200160002060008473ffffffffffffffffffffffffffffffffffffffff1673ffffffffffffffffffffffffffffffffffffffff16815260200190815260200160002060006101000a81548160ff0219169083151502179055508173ffffffffffffffffffffffffffffffffffffffff168373ffffffffffffffffffffffffffffffffffffffff167f17307eab39ab6107e8899845ad3d59bd9653f200f220920489ca2b5937696c3183604051611f5c91906127c3565b60405180910390a3505050565b611f74848484611942565b611f8084848484612130565b611fbf576040517f08c379a0000000000000000000000000000000000000000000000000000000008152600401611fb690613be4565b60405180910390fd5b50505050565b606060405180602001604052806000815250905090565b606060006001611feb846122b7565b01905060008167ffffffffffffffff81111561200a57612009612bbc565b5b6040519080825280601f01601f19166020018201604052801561203c5781602001600182028036833780820191505090505b509050600082602001820190505b60011561209f578080600190039150507f3031323334353637383961626364656600000000000000000000000000000000600a86061a8153600a858161209357612092613c04565b5b0494506000850361204a575b819350505050919050565b6001816000016000828254019250508190555050565b6120da82826040518060200160405280600081525061240a565b5050565b6120ea84848484612465565b817f7498bf43d4148a03a165d093fcadc813f1a344a5f983812a2777c01f4dc2f0d6858560405161211c929190613c33565b60405180910390a250505050565b50505050565b60006121518473ffffffffffffffffffffffffffffffffffffffff1661246b565b156122aa578373ffffffffffffffffffffffffffffffffffffffff1663150b7a0261217a6117de565b8786866040518563ffffffff1660e01b815260040161219c9493929190613cb1565b6020604051808303816000875af19250505080156121d857506040513d601f19601f820116820180604052508101906121d59190613d12565b60015b61225a573d8060008114612208576040519150601f19603f3d011682016040523d82523d6000602084013e61220d565b606091505b506000815103612252576040517f08c379a000000000000000000000000000000000000000000000000000000000815260040161224990613be4565b60405180910390fd5b805181602001fd5b63150b7a0260e01b7bffffffffffffffffffffffffffffffffffffffffffffffffffffffff1916817bffffffffffffffffffffffffffffffffffffffffffffffffffffffff1916149150506122af565b600190505b949350505050565b600080600090507a184f03e93ff9f4daa797ed6e38ed64bf6a1f0100000000000000008310612315577a184f03e93ff9f4daa797ed6e38ed64bf6a1f010000000000000000838161230b5761230a613c04565b5b0492506040810190505b6d04ee2d6d415b85acef81000000008310612352576d04ee2d6d415b85acef8100000000838161234857612347613c04565b5b0492506020810190505b662386f26fc10000831061238157662386f26fc10000838161237757612376613c04565b5b0492506010810190505b6305f5e10083106123aa576305f5e10083816123a05761239f613c04565b5b0492506008810190505b61271083106123cf5761271083816123c5576123c4613c04565b5b0492506004810190505b606483106123f257606483816123e8576123e7613c04565b5b0492506002810190505b600a8310612401576001810190505b80915050919050565b612414838361248e565b6124216000848484612130565b612460576040517f08c379a000000000000000000000000000000000000000000000000000000000815260040161245790613be4565b60405180910390fd5b505050565b50505050565b6000808273ffffffffffffffffffffffffffffffffffffffff163b119050919050565b600073ffffffffffffffffffffffffffffffffffffffff168273ffffffffffffffffffffffffffffffffffffffff16036124fd576040517f08c379a00000000000000000000000000000000000000000000000000000000081526004016124f490613d8b565b60405180910390fd5b61250681611c3b565b15612546576040517f08c379a000000000000000000000000000000000000000000000000000000000815260040161253d90613df7565b60405180910390fd5b6125546000838360016120de565b61255d81611c3b565b1561259d576040517f08c379a000000000000000000000000000000000000000000000000000000000815260040161259490613df7565b60405180910390fd5b6001600360008473ffffffffffffffffffffffffffffffffffffffff1673ffffffffffffffffffffffffffffffffffffffff16815260200190815260200160002060008282540192505081905550816002600083815260200190815260200160002060006101000a81548173ffffffffffffffffffffffffffffffffffffffff021916908373ffffffffffffffffffffffffffffffffffffffff160217905550808273ffffffffffffffffffffffffffffffffffffffff16600073ffffffffffffffffffffffffffffffffffffffff167fddf252ad1be2c89b69c2b068fc378daa952ba7f163c4a11628f55a4df523b3ef60405160405180910390a46126a760008383600161212a565b5050565b60405180610120016040528060608152602001606081526020016000815260200160008152602001606081526020016060815260200160608152602001600073ffffffffffffffffffffffffffffffffffffffff1681526020016000151581525090565b6000604051905090565b600080fd5b600080fd5b60007fffffffff0000000000000000000000000000000000000000000000000000000082169050919050565b61275881612723565b811461276357600080fd5b50565b6000813590506127758161274f565b92915050565b60006020828403121561279157612790612719565b5b600061279f84828501612766565b91505092915050565b60008115159050919050565b6127bd816127a8565b82525050565b60006020820190506127d860008301846127b4565b92915050565b600081519050919050565b600082825260208201905092915050565b60005b838110156128185780820151818401526020810190506127fd565b60008484015250505050565b6000601f19601f8301169050919050565b6000612840826127de565b61284a81856127e9565b935061285a8185602086016127fa565b61286381612824565b840191505092915050565b600060208201905081810360008301526128888184612835565b905092915050565b6000819050919050565b6128a381612890565b81146128ae57600080fd5b50565b6000813590506128c08161289a565b92915050565b6000602082840312156128dc576128db612719565b5b60006128ea848285016128b1565b91505092915050565b600073ffffffffffffffffffffffffffffffffffffffff82169050919050565b600061291e826128f3565b9050919050565b61292e81612913565b82525050565b60006020820190506129496000830184612925565b92915050565b61295881612913565b811461296357600080fd5b50565b6000813590506129758161294f565b92915050565b6000806040838503121561299257612991612719565b5b60006129a085828601612966565b92505060206129b1858286016128b1565b9150509250929050565b6129c481612890565b82525050565b60006020820190506129df60008301846129bb565b92915050565b6000806000606084860312156129fe576129fd612719565b5b6000612a0c86828701612966565b9350506020612a1d86828701612966565b9250506040612a2e868287016128b1565b9150509250925092565b600082825260208201905092915050565b6000612a54826127de565b612a5e8185612a38565b9350612a6e8185602086016127fa565b612a7781612824565b840191505092915050565b612a8b81612890565b82525050565b612a9a81612913565b82525050565b612aa9816127a8565b82525050565b6000610120830160008301518482036000860152612acd8282612a49565b91505060208301518482036020860152612ae78282612a49565b9150506040830151612afc6040860182612a82565b506060830151612b0f6060860182612a82565b5060808301518482036080860152612b278282612a49565b91505060a083015184820360a0860152612b418282612a49565b91505060c083015184820360c0860152612b5b8282612a49565b91505060e0830151612b7060e0860182612a91565b50610100830151612b85610100860182612aa0565b508091505092915050565b60006020820190508181036000830152612baa8184612aaf565b905092915050565b600080fd5b600080fd5b7f4e487b7100000000000000000000000000000000000000000000000000000000600052604160045260246000fd5b612bf482612824565b810181811067ffffffffffffffff82111715612c1357612c12612bbc565b5b80604052505050565b6000612c2661270f565b9050612c328282612beb565b919050565b600067ffffffffffffffff821115612c5257612c51612bbc565b5b612c5b82612824565b9050602081019050919050565b82818337600083830152505050565b6000612c8a612c8584612c37565b612c1c565b905082815260208101848484011115612ca657612ca5612bb7565b5b612cb1848285612c68565b509392505050565b600082601f830112612cce57612ccd612bb2565b5b8135612cde848260208601612c77565b91505092915050565b60008060408385031215612cfe57612cfd612719565b5b6000612d0c858286016128b1565b925050602083013567ffffffffffffffff811115612d2d57612d2c61271e565b5b612d3985828601612cb9565b9150509250929050565b600060208284031215612d5957612d58612719565b5b6000612d6784828501612966565b91505092915050565b612d79816127a8565b8114612d8457600080fd5b50565b600081359050612d9681612d70565b92915050565b60008060408385031215612db357612db2612719565b5b6000612dc185828601612966565b9250506020612dd285828601612d87565b9150509250929050565b600067ffffffffffffffff821115612df757612df6612bbc565b5b612e0082612824565b9050602081019050919050565b6000612e20612e1b84612ddc565b612c1c565b905082815260208101848484011115612e3c57612e3b612bb7565b5b612e47848285612c68565b509392505050565b600082601f830112612e6457612e63612bb2565b5b8135612e74848260208601612e0d565b91505092915050565b60008060008060808587031215612e9757612e96612719565b5b6000612ea587828801612966565b9450506020612eb687828801612966565b9350506040612ec7878288016128b1565b925050606085013567ffffffffffffffff811115612ee857612ee761271e565b5b612ef487828801612e4f565b91505092959194509250565b600080600080600080600060e0888a031215612f1f57612f1e612719565b5b6000612f2d8a828b01612966565b975050602088013567ffffffffffffffff811115612f4e57612f4d61271e565b5b612f5a8a828b01612cb9565b965050604088013567ffffffffffffffff811115612f7b57612f7a61271e565b5b612f878a828b01612cb9565b9550506060612f988a828b016128b1565b945050608088013567ffffffffffffffff811115612fb957612fb861271e565b5b612fc58a828b01612cb9565b93505060a088013567ffffffffffffffff811115612fe657612fe561271e565b5b612ff28a828b01612cb9565b92505060c088013567ffffffffffffffff8111156130135761301261271e565b5b61301f8a828b01612cb9565b91505092959891949750929550565b6000806040838503121561304557613044612719565b5b600061305385828601612966565b925050602061306485828601612966565b9150509250929050565b6000610120820190508181036000830152613089818c612835565b9050818103602083015261309d818b612835565b90506130ac604083018a6129bb565b6130b960608301896129bb565b81810360808301526130cb8188612835565b905081810360a08301526130df8187612835565b905081810360c08301526130f38186612835565b905061310260e0830185612925565b6131106101008301846127b4565b9a9950505050505050505050565b60006020828403121561313457613133612719565b5b600082013567ffffffffffffffff8111156131525761315161271e565b5b61315e84828501612cb9565b91505092915050565b7f4e487b7100000000000000000000000000000000000000000000000000000000600052602260045260246000fd5b600060028204905060018216806131ae57607f821691505b6020821081036131c1576131c0613167565b5b50919050565b7f4552433732313a20617070726f76616c20746f2063757272656e74206f776e6560008201527f7200000000000000000000000000000000000000000000000000000000000000602082015250565b60006132236021836127e9565b915061322e826131c7565b604082019050919050565b6000602082019050818103600083015261325281613216565b9050919050565b7f4552433732313a20617070726f76652063616c6c6572206973206e6f7420746f60008201527f6b656e206f776e6572206f7220617070726f76656420666f7220616c6c000000602082015250565b60006132b5603d836127e9565b91506132c082613259565b604082019050919050565b600060208201905081810360008301526132e4816132a8565b9050919050565b7f4552433732313a2063616c6c6572206973206e6f7420746f6b656e206f776e6560008201527f72206f7220617070726f76656400000000000000000000000000000000000000602082015250565b6000613347602d836127e9565b9150613352826132eb565b604082019050919050565b600060208201905081810360008301526133768161333a565b9050919050565b7f546f6b656e20646f6573206e6f74206578697374000000000000000000000000600082015250565b60006133b36014836127e9565b91506133be8261337d565b602082019050919050565b600060208201905081810360008301526133e2816133a6565b9050919050565b7f43726564697420616c7265616479207665726966696564000000000000000000600082015250565b600061341f6017836127e9565b915061342a826133e9565b602082019050919050565b6000602082019050818103600083015261344e81613412565b9050919050565b60008190508160005260206000209050919050565b60006020601f8301049050919050565b600082821b905092915050565b6000600883026134b77fffffffffffffffffffffffffffffffffffffffffffffffffffffffffffffffff8261347a565b6134c1868361347a565b95508019841693508086168417925050509392505050565b6000819050919050565b60006134fe6134f96134f484612890565b6134d9565b612890565b9050919050565b6000819050919050565b613518836134e3565b61352c61352482613505565b848454613487565b825550505050565b600090565b613541613534565b61354c81848461350f565b505050565b5b8181101561357057613565600082613539565b600181019050613552565b5050565b601f8211156135b55761358681613455565b61358f8461346a565b8101602085101561359e578190505b6135b26135aa8561346a565b830182613551565b50505b505050565b600082821c905092915050565b60006135d8600019846008026135ba565b1980831691505092915050565b60006135f183836135c7565b9150826002028217905092915050565b61360a826127de565b67ffffffffffffffff81111561362357613622612bbc565b5b61362d8254613196565b613638828285613574565b600060209050601f83116001811461366b5760008415613659578287015190505b61366385826135e5565b8655506136cb565b601f19841661367986613455565b60005b828110156136a15784890151825560018201915060208501945060208101905061367c565b868310156136be57848901516136ba601f8916826135c7565b8355505b6001600288020188555050505b505050505050565b7f4552433732313a20696e76616c696420746f6b656e2049440000000000000000600082015250565b60006137096018836127e9565b9150613714826136d3565b602082019050919050565b60006020820190508181036000830152613738816136fc565b9050919050565b7f4552433732313a2061646472657373207a65726f206973206e6f74206120766160008201527f6c6964206f776e65720000000000000000000000000000000000000000000000602082015250565b600061379b6029836127e9565b91506137a68261373f565b604082019050919050565b600060208201905081810360008301526137ca8161378e565b9050919050565b600081905092915050565b60006137e7826127de565b6137f181856137d1565b93506138018185602086016127fa565b80840191505092915050565b600061381982856137dc565b915061382582846137dc565b91508190509392505050565b600061383d82846137dc565b915081905092915050565b7f50726f6a65637420616c72656164792065786973747300000000000000000000600082015250565b600061387e6016836127e9565b915061388982613848565b602082019050919050565b600060208201905081810360008301526138ad81613871565b9050919050565b600060408201905081810360008301526138ce8185612835565b90506138dd60208301846129bb565b9392505050565b7f4f776e61626c653a206e6577206f776e657220697320746865207a65726f206160008201527f6464726573730000000000000000000000000000000000000000000000000000602082015250565b60006139406026836127e9565b915061394b826138e4565b604082019050919050565b6000602082019050818103600083015261396f81613933565b9050919050565b7f4552433732313a207472616e736665722066726f6d20696e636f72726563742060008201527f6f776e6572000000000000000000000000000000000000000000000000000000602082015250565b60006139d26025836127e9565b91506139dd82613976565b604082019050919050565b60006020820190508181036000830152613a01816139c5565b9050919050565b7f4552433732313a207472616e7366657220746f20746865207a65726f2061646460008201527f7265737300000000000000000000000000000000000000000000000000000000602082015250565b6000613a646024836127e9565b9150613a6f82613a08565b604082019050919050565b60006020820190508181036000830152613a9381613a57565b9050919050565b7f4f776e61626c653a2063616c6c6572206973206e6f7420746865206f776e6572600082015250565b6000613ad06020836127e9565b9150613adb82613a9a565b602082019050919050565b60006020820190508181036000830152613aff81613ac3565b9050919050565b7f4552433732313a20617070726f766520746f2063616c6c657200000000000000600082015250565b6000613b3c6019836127e9565b9150613b4782613b06565b602082019050919050565b60006020820190508181036000830152613b6b81613b2f565b9050919050565b7f4552433732313a207472616e7366657220746f206e6f6e20455243373231526560008201527f63656976657220696d706c656d656e7465720000000000000000000000000000602082015250565b6000613bce6032836127e9565b9150613bd982613b72565b604082019050919050565b60006020820190508181036000830152613bfd81613bc1565b9050919050565b7f4e487b7100000000000000000000000000000000000000000000000000000000600052601260045260246000fd5b6000604082019050613c486000830185612925565b613c556020830184612925565b9392505050565b600081519050919050565b600082825260208201905092915050565b6000613c8382613c5c565b613c8d8185613c67565b9350613c9d8185602086016127fa565b613ca681612824565b840191505092915050565b6000608082019050613cc66000830187612925565b613cd36020830186612925565b613ce060408301856129bb565b8181036060830152613cf28184613c78565b905095945050505050565b600081519050613d0c8161274f565b92915050565b600060208284031215613d2857613d27612719565b5b6000613d3684828501613cfd565b91505092915050565b7f4552433732313a206d696e7420746f20746865207a65726f2061646472657373600082015250565b6000613d756020836127e9565b9150613d8082613d3f565b602082019050919050565b60006020820190508181036000830152613da481613d68565b9050919050565b7f4552433732313a20746f6b656e20616c7265616479206d696e74656400000000600082015250565b6000613de1601c836127e9565b9150613dec82613dab565b602082019050919050565b60006020820190508181036000830152613e1081613dd4565b905091905056fea2646970667358221220def5fa0b57cceb8e484695148cff6c7b90525a8b86e049b5b904d426e202f7bb64736f6c63430008130033",
  "linkReferences": {},
  "deployedLinkReferences": {}
}