{
  "_format": "hh-sol-artifact-1",
  "contractName": "CarbonMarketplace",
  "sourceName": "Contracts/CarbonMarketplace.sol",
  "abi": [
    {
      "inputs": [
        {
          "internalType": "address",
          "name": "_carbonCreditAddress",
          "type": "address"
        }
      ],
      "stateMutability": "nonpayable",
      "type": "constructor"
    },
    {
      "anonymous": false,
      "inputs": [
        {
          "indexed": true,
          "internalType": "uint256",
          "name": "tokenId",
          "type": "uint256"
        },
        {
          "indexed": false,
          "internalType": "address",
          "name": "seller",
          "type": "address"
        },
        {
          "indexed": false,
          "internalType": "uint256",
          "name": "price",
          "type": "uint256"
        }
      ],
      "name": "CreditListed",
      "type": "event"
    },
    {
      "anonymous": false,
      "inputs": [
        {
          "indexed": true,
          "internalType": "uint256",
          "name": "tokenId",
          "type": "uint256"
        },
        {
          "indexed": false,
          "internalType": "address",
          "name": "seller",
          "type": "address"
        },
        {
          "indexed": false,
          "internalType": "address",
          "name": "buyer",
          "type": "address"
        },
        {
          "indexed": false,
          "internalType": "uint256",
          "name": "price",
          "type": "uint256"
        }
      ],
      "name": "CreditSold",
      "type": "event"
    },
    {
      "anonymous": false,
      "inputs": [
        {
          "indexed": true,
          "internalType": "uint256",
          "name": "tokenId",
          "type": "uint256"
        }
      ],
      "name": "ListingCancelled",
      "type": "event"
    },
    {
      "anonymous": false,
      "inputs": [
        {
          "indexed": true,
          "internalType": "address",
          "name": "previousOwner",
          "type": "address"
        },
        {
          "indexed": true,
          "internalType": "address",
          "name": "newOwner",
          "type": "address"
        }
      ],
      "name": "OwnershipTransferred",
      "type": "event"
    },
    {
      "inputs": [
        {
          "internalType": "uint256",
          "name": "",
          "type": "uint256"
        }
      ],
      "name": "activeListings",
      "outputs": [
        {
          "internalType": "uint256",
          "name": "",
          "type": "uint256"
        }
      ],
      "stateMutability": "view",
      "type": "function"
    },
    {
      "inputs": [
        {
          "internalType": "uint256",
          "name": "tokenId",
          "type": "uint256"
        }
      ],
      "name": "buyCredit",
      "outputs": [],
      "stateMutability": "payable",
      "type": "function"
    },
    {
      "inputs": [
        {
          "internalType": "uint256",
          "name": "tokenId",
          "type": "uint256"
        }
      ],
      "name": "cancelListing",
      "outputs": [],
      "stateMutability": "nonpayable",
      "type": "function"
    },
    {
      "inputs": [],
      "name": "carbonCredit",
      "outputs": [
        {
          "internalType": "contract CarbonCredit",
          "name": "",
          "type": "address"
        }
      ],
      "stateMutability": "view",
      "type": "function"
    },
    {
      "inputs": [],
      "name": "getActiveListings",
      "outputs": [
        {
          "internalType": "uint256[]",
          "name": "",
          "type": "uint256[]"
        }
      ],
      "stateMutability": "view",
      "type": "function"
    },
    {
      "inputs": [
        {
          "internalType": "uint256",
          "name": "tokenId",
          "type": "uint256"
        }
      ],
      "name": "getListing",
      "outputs": [
        {
          "components": [
            {
              "internalType": "uint256",
              "name": "tokenId",
              "type": "uint256"
            },
            {
              "internalType": "address",
              "name": "seller",
              "type": "address"
            },
            {
              "internalType": "uint256",
              "name": "price",
              "type": "uint256"
            },
            {
              "internalType": "bool",
              "name": "isActive",
              "type": "bool"
            }
          ],
          "internalType": "struct CarbonMarketplace.Listing",
          "name": "",
          "type": "tuple"
        }
      ],
      "stateMutability": "view",
      "type": "function"
    },
    {
      "inputs": [
        {
          "internalType": "uint256",
          "name": "tokenId",
          "type": "uint256"
        },
        {
          "internalType": "uint256",
          "name": "price",
          "type": "uint256"
        }
      ],
      "name": "listCredit",
      "outputs": [],
      "stateMutability": "nonpayable",
      "type": "function"
    },
    {
      "inputs": [
        {
          "internalType": "uint256",
          "name": "",
          "type": "uint256"
        }
      ],
      "name": "listings",
      "outputs": [
        {
          "internalType": "uint256",
          "name": "tokenId",
          "type": "uint256"
        },
        {
          "internalType": "address",
          "name": "seller",
          "type": "address"
        },
        {
          "internalType": "uint256",
          "name": "price",
          "type": "uint256"
        },
        {
          "internalType": "bool",
          "name": "isActive",
          "type": "bool"
        }
      ],
      "stateMutability": "view",
      "type": "function"
    },
    {
      "inputs": [],
      "name": "owner",
      "outputs": [
        {
          "internalType": "address",
          "name": "",
          "type": "address"
        }
      ],
      "stateMutability": "view",
      "type": "function"
    },
    {
      "inputs": [],
      "name": "renounceOwnership",
      "outputs": [],
      "stateMutability": "nonpayable",
      "type": "function"
    },
    {
      "inputs": [
        {
          "internalType": "address",
          "name": "newOwner",
          "type": "address"
        }
      ],
      "name": "transferOwnership",
      "outputs": [],
      "stateMutability": "nonpayable",
      "type": "function"
    }
  ],
  "bytecode": "0x60806040523480156200001157600080fd5b5060405162001b8638038062001b868339818101604052810190620000379190620001df565b60016000819055506200005f62000053620000a760201b60201c565b620000af60201b60201c565b80600260006101000a81548173ffffffffffffffffffffffffffffffffffffffff021916908373ffffffffffffffffffffffffffffffffffffffff1602179055505062000211565b600033905090565b6000600160009054906101000a900473ffffffffffffffffffffffffffffffffffffffff16905081600160006101000a81548173ffffffffffffffffffffffffffffffffffffffff021916908373ffffffffffffffffffffffffffffffffffffffff1602179055508173ffffffffffffffffffffffffffffffffffffffff168173ffffffffffffffffffffffffffffffffffffffff167f8be0079c531659141344cd1fd0a4f28419497f9722a3daafe3b4186f6b6457e060405160405180910390a35050565b600080fd5b600073ffffffffffffffffffffffffffffffffffffffff82169050919050565b6000620001a7826200017a565b9050919050565b620001b9816200019a565b8114620001c557600080fd5b50565b600081519050620001d981620001ae565b92915050565b600060208284031215620001f857620001f762000175565b5b60006200020884828501620001c8565b91505092915050565b61196580620002216000396000f3fe60806040526004361061009c5760003560e01c8063715018a611610064578063715018a6146101985780637211dde4146101af57806387c35bc0146101cb5780638da5cb5b146101f6578063de74e57b14610221578063f2fde38b146102615761009c565b8063107a274a146100a1578063305a67a8146100de5780634fbf39291461010757806361cf486314610130578063637bf7951461016d575b600080fd5b3480156100ad57600080fd5b506100c860048036038101906100c39190610f81565b61028a565b6040516100d5919061106e565b60405180910390f35b3480156100ea57600080fd5b5061010560048036038101906101009190610f81565b61033c565b005b34801561011357600080fd5b5061012e60048036038101906101299190611089565b61051e565b005b34801561013c57600080fd5b5061015760048036038101906101529190610f81565b610891565b60405161016491906110d8565b60405180910390f35b34801561017957600080fd5b506101826108b5565b60405161018f9190611152565b60405180910390f35b3480156101a457600080fd5b506101ad6108db565b005b6101c960048036038101906101c49190610f81565b6108ef565b005b3480156101d757600080fd5b506101e0610b34565b6040516101ed919061121c565b60405180910390f35b34801561020257600080fd5b5061020b610b8c565b604051610218919061124d565b60405180910390f35b34801561022d57600080fd5b5061024860048036038101906102439190610f81565b610bb6565b6040516102589493929190611277565b60405180910390f35b34801561026d57600080fd5b50610288600480360381019061028391906112e8565b610c13565b005b610292610f06565b60036000838152602001908152602001600020604051806080016040529081600082015481526020016001820160009054906101000a900473ffffffffffffffffffffffffffffffffffffffff1673ffffffffffffffffffffffffffffffffffffffff1673ffffffffffffffffffffffffffffffffffffffff168152602001600282015481526020016003820160009054906101000a900460ff1615151515815250509050919050565b60006003600083815260200190815260200160002090503373ffffffffffffffffffffffffffffffffffffffff168160010160009054906101000a900473ffffffffffffffffffffffffffffffffffffffff1673ffffffffffffffffffffffffffffffffffffffff16146103e5576040517f08c379a00000000000000000000000000000000000000000000000000000000081526004016103dc90611372565b60405180910390fd5b8060030160009054906101000a900460ff16610436576040517f08c379a000000000000000000000000000000000000000000000000000000000815260040161042d906113de565b60405180910390fd5b60008160030160006101000a81548160ff02191690831515021790555061045c82610c96565b600260009054906101000a900473ffffffffffffffffffffffffffffffffffffffff1673ffffffffffffffffffffffffffffffffffffffff166323b872dd3033856040518463ffffffff1660e01b81526004016104bb939291906113fe565b600060405180830381600087803b1580156104d557600080fd5b505af11580156104e9573d6000803e3d6000fd5b50505050817f411aee90354c51b1b04cd563fcab2617142a9d50da19232d888547c8a1b7fd8a60405160405180910390a25050565b3373ffffffffffffffffffffffffffffffffffffffff16600260009054906101000a900473ffffffffffffffffffffffffffffffffffffffff1673ffffffffffffffffffffffffffffffffffffffff16636352211e846040518263ffffffff1660e01b815260040161059091906110d8565b602060405180830381865afa1580156105ad573d6000803e3d6000fd5b505050506040513d601f19601f820116820180604052508101906105d1919061144a565b73ffffffffffffffffffffffffffffffffffffffff1614610627576040517f08c379a000000000000000000000000000000000000000000000000000000000815260040161061e906114c3565b60405180910390fd5b6000811161066a576040517f08c379a00000000000000000000000000000000000000000000000000000000081526004016106619061152f565b60405180910390fd5b6003600083815260200190815260200160002060030160009054906101000a900460ff16156106ce576040517f08c379a00000000000000000000000000000000000000000000000000000000081526004016106c59061159b565b60405180910390fd5b600260009054906101000a900473ffffffffffffffffffffffffffffffffffffffff1673ffffffffffffffffffffffffffffffffffffffff166323b872dd3330856040518463ffffffff1660e01b815260040161072d939291906113fe565b600060405180830381600087803b15801561074757600080fd5b505af115801561075b573d6000803e3d6000fd5b5050505060405180608001604052808381526020013373ffffffffffffffffffffffffffffffffffffffff16815260200182815260200160011515815250600360008481526020019081526020016000206000820151816000015560208201518160010160006101000a81548173ffffffffffffffffffffffffffffffffffffffff021916908373ffffffffffffffffffffffffffffffffffffffff1602179055506040820151816002015560608201518160030160006101000a81548160ff0219169083151502179055509050506004829080600181540180825580915050600190039060005260206000200160009091909190915055817f4ac0e51fccbcff90e2efa701b77c9cccff85e9345e1d32c94e7e785993b195c433836040516108859291906115bb565b60405180910390a25050565b600481815481106108a157600080fd5b906000526020600020016000915090505481565b600260009054906101000a900473ffffffffffffffffffffffffffffffffffffffff1681565b6108e3610d61565b6108ed6000610ddf565b565b6108f7610ea5565b60006003600083815260200190815260200160002090508060030160009054906101000a900460ff1661095f576040517f08c379a000000000000000000000000000000000000000000000000000000000815260040161095690611630565b60405180910390fd5b80600201543410156109a6576040517f08c379a000000000000000000000000000000000000000000000000000000000815260040161099d9061169c565b60405180910390fd5b60008160030160006101000a81548160ff0219169083151502179055506109cc82610c96565b600260009054906101000a900473ffffffffffffffffffffffffffffffffffffffff1673ffffffffffffffffffffffffffffffffffffffff166323b872dd3033856040518463ffffffff1660e01b8152600401610a2b939291906113fe565b600060405180830381600087803b158015610a4557600080fd5b505af1158015610a59573d6000803e3d6000fd5b505050508060010160009054906101000a900473ffffffffffffffffffffffffffffffffffffffff1673ffffffffffffffffffffffffffffffffffffffff166108fc349081150290604051600060405180830381858888f19350505050158015610ac7573d6000803e3d6000fd5b50817f7e47a1e6c94fa983ca28d7705e8a571d166221513a37da6b741dd937d16dfb118260010160009054906101000a900473ffffffffffffffffffffffffffffffffffffffff163334604051610b20939291906113fe565b60405180910390a250610b31610ef4565b50565b60606004805480602002602001604051908101604052809291908181526020018280548015610b8257602002820191906000526020600020905b815481526020019060010190808311610b6e575b5050505050905090565b6000600160009054906101000a900473ffffffffffffffffffffffffffffffffffffffff16905090565b60036020528060005260406000206000915090508060000154908060010160009054906101000a900473ffffffffffffffffffffffffffffffffffffffff16908060020154908060030160009054906101000a900460ff16905084565b610c1b610d61565b600073ffffffffffffffffffffffffffffffffffffffff168173ffffffffffffffffffffffffffffffffffffffff1603610c8a576040517f08c379a0000000000000000000000000000000000000000000000000000000008152600401610c819061172e565b60405180910390fd5b610c9381610ddf565b50565b60005b600480549050811015610d5d578160048281548110610cbb57610cba61174e565b5b906000526020600020015403610d4a5760046001600480549050610cdf91906117ac565b81548110610cf057610cef61174e565b5b906000526020600020015460048281548110610d0f57610d0e61174e565b5b90600052602060002001819055506004805480610d2f57610d2e6117e0565b5b60019003818190600052602060002001600090559055610d5d565b8080610d559061180f565b915050610c99565b5050565b610d69610efe565b73ffffffffffffffffffffffffffffffffffffffff16610d87610b8c565b73ffffffffffffffffffffffffffffffffffffffff1614610ddd576040517f08c379a0000000000000000000000000000000000000000000000000000000008152600401610dd4906118a3565b60405180910390fd5b565b6000600160009054906101000a900473ffffffffffffffffffffffffffffffffffffffff16905081600160006101000a81548173ffffffffffffffffffffffffffffffffffffffff021916908373ffffffffffffffffffffffffffffffffffffffff1602179055508173ffffffffffffffffffffffffffffffffffffffff168173ffffffffffffffffffffffffffffffffffffffff167f8be0079c531659141344cd1fd0a4f28419497f9722a3daafe3b4186f6b6457e060405160405180910390a35050565b600260005403610eea576040517f08c379a0000000000000000000000000000000000000000000000000000000008152600401610ee19061190f565b60405180910390fd5b6002600081905550565b6001600081905550565b600033905090565b604051806080016040528060008152602001600073ffffffffffffffffffffffffffffffffffffffff168152602001600081526020016000151581525090565b600080fd5b6000819050919050565b610f5e81610f4b565b8114610f6957600080fd5b50565b600081359050610f7b81610f55565b92915050565b600060208284031215610f9757610f96610f46565b5b6000610fa584828501610f6c565b91505092915050565b610fb781610f4b565b82525050565b600073ffffffffffffffffffffffffffffffffffffffff82169050919050565b6000610fe882610fbd565b9050919050565b610ff881610fdd565b82525050565b60008115159050919050565b61101381610ffe565b82525050565b60808201600082015161102f6000850182610fae565b5060208201516110426020850182610fef565b5060408201516110556040850182610fae565b506060820151611068606085018261100a565b50505050565b60006080820190506110836000830184611019565b92915050565b600080604083850312156110a05761109f610f46565b5b60006110ae85828601610f6c565b92505060206110bf85828601610f6c565b9150509250929050565b6110d281610f4b565b82525050565b60006020820190506110ed60008301846110c9565b92915050565b6000819050919050565b600061111861111361110e84610fbd565b6110f3565b610fbd565b9050919050565b600061112a826110fd565b9050919050565b600061113c8261111f565b9050919050565b61114c81611131565b82525050565b60006020820190506111676000830184611143565b92915050565b600081519050919050565b600082825260208201905092915050565b6000819050602082019050919050565b60006111a58383610fae565b60208301905092915050565b6000602082019050919050565b60006111c98261116d565b6111d38185611178565b93506111de83611189565b8060005b8381101561120f5781516111f68882611199565b9750611201836111b1565b9250506001810190506111e2565b5085935050505092915050565b6000602082019050818103600083015261123681846111be565b905092915050565b61124781610fdd565b82525050565b6000602082019050611262600083018461123e565b92915050565b61127181610ffe565b82525050565b600060808201905061128c60008301876110c9565b611299602083018661123e565b6112a660408301856110c9565b6112b36060830184611268565b95945050505050565b6112c581610fdd565b81146112d057600080fd5b50565b6000813590506112e2816112bc565b92915050565b6000602082840312156112fe576112fd610f46565b5b600061130c848285016112d3565b91505092915050565b600082825260208201905092915050565b7f4e6f74207468652073656c6c6572000000000000000000000000000000000000600082015250565b600061135c600e83611315565b915061136782611326565b602082019050919050565b6000602082019050818103600083015261138b8161134f565b9050919050565b7f4c697374696e67206e6f74206163746976650000000000000000000000000000600082015250565b60006113c8601283611315565b91506113d382611392565b602082019050919050565b600060208201905081810360008301526113f7816113bb565b9050919050565b6000606082019050611413600083018661123e565b611420602083018561123e565b61142d60408301846110c9565b949350505050565b600081519050611444816112bc565b92915050565b6000602082840312156114605761145f610f46565b5b600061146e84828501611435565b91505092915050565b7f4e6f742074686520746f6b656e206f776e657200000000000000000000000000600082015250565b60006114ad601383611315565b91506114b882611477565b602082019050919050565b600060208201905081810360008301526114dc816114a0565b9050919050565b7f5072696365206d7573742062652067726561746572207468616e203000000000600082015250565b6000611519601c83611315565b9150611524826114e3565b602082019050919050565b600060208201905081810360008301526115488161150c565b9050919050565b7f43726564697420616c7265616479206c69737465640000000000000000000000600082015250565b6000611585601583611315565b91506115908261154f565b602082019050919050565b600060208201905081810360008301526115b481611578565b9050919050565b60006040820190506115d0600083018561123e565b6115dd60208301846110c9565b9392505050565b7f437265646974206e6f7420666f722073616c6500000000000000000000000000600082015250565b600061161a601383611315565b9150611625826115e4565b602082019050919050565b600060208201905081810360008301526116498161160d565b9050919050565b7f496e73756666696369656e74207061796d656e74000000000000000000000000600082015250565b6000611686601483611315565b915061169182611650565b602082019050919050565b600060208201905081810360008301526116b581611679565b9050919050565b7f4f776e61626c653a206e6577206f776e657220697320746865207a65726f206160008201527f6464726573730000000000000000000000000000000000000000000000000000602082015250565b6000611718602683611315565b9150611723826116bc565b604082019050919050565b600060208201905081810360008301526117478161170b565b9050919050565b7f4e487b7100000000000000000000000000000000000000000000000000000000600052603260045260246000fd5b7f4e487b7100000000000000000000000000000000000000000000000000000000600052601160045260246000fd5b60006117b782610f4b565b91506117c283610f4b565b92508282039050818111156117da576117d961177d565b5b92915050565b7f4e487b7100000000000000000000000000000000000000000000000000000000600052603160045260246000fd5b600061181a82610f4b565b91507fffffffffffffffffffffffffffffffffffffffffffffffffffffffffffffffff820361184c5761184b61177d565b5b600182019050919050565b7f4f776e61626c653a2063616c6c6572206973206e6f7420746865206f776e6572600082015250565b600061188d602083611315565b915061189882611857565b602082019050919050565b600060208201905081810360008301526118bc81611880565b9050919050565b7f5265656e7472616e637947756172643a207265656e7472616e742063616c6c00600082015250565b60006118f9601f83611315565b9150611904826118c3565b602082019050919050565b60006020820190508181036000830152611928816118ec565b905091905056fea2646970667358221220935083eec798d9017a117039b70e05b1b7cbf56e290789cf33c0dcc3f55d139e64736f6c63430008130033",
  "linkReferences": {},
  "deployedLinkReferences": {}
}